:020000040800F2
:10000000000002202D450008F5410008F7410008D6
:10001000F9410008FB410008FD4100080000000014
:10002000000000000000000000000000FF41000888
:1000300001420008000000000342000805420008D9
:100040007D4500087D4500087D4500087D45000888
:100050007D4500087D4500080D4200087D450008EB
:100060007D4500087D4500087D4500087D45000868
:100070007D4500087D4500087D4500087D45000858
:100080007D4500087D4500087D4500080000000012
:100090000000000000000000000000007D45000896
:1000A0007D4500087D4500087D4500087D45000828
:1000B0007D4500087D4500087D4500087D45000818
:1000C0007D4500087D4500087D4500087D45000808
:1000D0007D4500087D4500087D45000800000000C2
:1000E0007D4500087D4500087D45000800000000B2
:1000F0000000000000000000000000007D45000836
:10010000000000007D4500087D4500087D45000891
:1001100000000000000000000000000000000000DF
:100120007D4500087D4500087D4500087D450008A7
:100130007D450008000000000000000000000000F5
:10014000000000000000000000000000194200084C
:100150007D4500087D4500087D4500087D45000877
:100160007D4500087D4500080000000000000000FB
:10017000000000000000000000000000000000007F
:10018000000000007D4500080000000000000000A5
:080190007D4500087D450008D3
:1001980010B5054C237833B9044B13B10448AFF3B9
:1001A80000800123237010BD900000200000000093
:1001B8007847000808B5034B1BB103490348AFF360
:1001C800008008BD00000000940000207847000867
:1001D80053B94AB9002908BF00281CBF4FF0FF31A6
:1001E8004FF0FF3000F072B9ADF1080C6DE904CEA4
:1001F80000F006F8DDF804E0DDE9022304B07047FA
:100208002DE9F047089E04468846002B4BD18A42C8
:10021800154667D9B2FA82F24AB1C2F1200701FA4B
:1002280002F320FA07F7954047EA030894404FEA9B
:10023800154E230CB8FBFEF71FFA85FC0EFB17883A
:1002480043EA084307FB0CF1994209D9EB1807F177
:10025800FF3080F01B81994240F21881023F2B4405
:100268005B1AA4B2B3FBFEF00EFB103344EA03445E
:1002780000FB0CFCA44509D92C1900F1FF3380F0D0
:100288000781A44540F2048102382C4440EA074023
:10029800A4EB0C0400271EB1D4400023C6E9004398
:1002A8003946BDE8F0878B4209D9002E00F0EB8073
:1002B8000027C6E9000138463946BDE8F087B3FA99
:1002C80083F7002F47D18B4202D3824200F2FA8093
:1002D800841A61EB030301209846002EE0D0C6E99A
:1002E8000048DDE702B9FFDEB2FA82F2002A40F0E8
:1002F8008F80491B4FEA154E1FFA85F80127B1FB7D
:10030800FEFC230C0EFB1C1143EA014308FB0CF115
:10031800994207D9EB180CF1FF3002D2994200F24A
:10032800CD808446591AA3B2B1FBFEF00EFB10141F
:1003380043EA044408FB00F8A04507D92C1900F14A
:10034800FF3302D2A04500F2B6801846A4EB080499
:1003580040EA0C409FE7C7F1200CBB4022FA0CFE94
:100368004EEA030E01FA07F420FA0CF521FA0CF311
:100378004FEA1E482543B3FBF8F92C0C08FB193348
:100388001FFA8EFA44EA034309FB0AF49C4202FA74
:1003980007F200FA07F10BD91EEB030309F1FF304E
:1003A80080F087809C4240F28480A9F1020973445E
:1003B8001B1BADB2B3FBF8F008FB103345EA03444E
:1003C80000FB0AFAA24508D91EEB040400F1FF332A
:1003D8006BD2A24569D90238744440EA0940A0FBAF
:1003E8000289A4EB0A044C45C2464B4654D351D06B
:1003F800002E69D0B1EB0A0564EB030404FA0CFC87
:10040800FD40FC404CEA0505C6E90054002747E7D3
:10041800C2F1200320FA03F7954001FA02F021FA0D
:1004280003F34FEA154E3843010CB3FBFEF71FFAEE
:1004380085F80EFB173341EA034107FB08F38B42AB
:1004480004FA02F407D9691807F1FF3C2FD28B424E
:100458002DD9023F2944CB1A81B2B3FBFEF00EFB23
:10046800103341EA034100FB08F38B4207D96918AE
:1004780000F1FF3C17D28B4215D902382944C91A1A
:1004880040EA07473BE73746304609E70746E7E6CD
:100498001846FBE64145ABD2B8EB020A69EB0E02FF
:1004A80001381346A4E76046E9E7184695E767462A
:1004B800D1E781467CE702382C4447E7ACF1020CCF
:1004C8002B442FE7384608E73746E9E6704700BF70
:1004D80010B504460E4B18784FF47A73B3FBF0F35B
:1004E8000C4A1068B0FBF3F000F0D2F868B90F2C92
:1004F80001D901200AE0002221464FF0FF3000F028
:1005080069F8034B5C60002000E0012010BD00BFCB
:10051800000000202800002008B50B4B1A6842F4A0
:1005280000721A601A6842F480621A601A6842F40B
:1005380080721A60032000F02FF80020FFF7C8FF30
:1005480003F038FE002008BD003C0240034A116851
:10055800034B1B780B441360704700BFD00000208A
:1005680000000020014B1868704700BFD000002031
:1005780038B50446FFF7F6FF0546B4F1FF3F02D051
:10058800044B1B781C44FFF7EDFF401BA042FAD335
:1005980038BD00BF0000002010B50446C31E042B60
:1005A8000FD80A4AD36823F4E0631B041B0C240207
:1005B80004F4E064234343F0BF6343F40033D3609F
:1005C80010BD9221024803F09CFDEAE700ED00E02F
:1005D800A847000870B505460C4616460F2A25D8C8
:1005E8000F2C28D81B4BDB68C3F30223C3F1070287
:1005F800042A28BF0422191D062921D9033B4FF0DC
:10060800FF3101FA02F224EA02049C4001FA03F3E2
:1006180026EA03063443002D14DB2401E4B205F175
:10062800604505F5614585F8004370BDAA210A4873
:1006380003F067FDD4E7AB21074803F062FDD1E77B
:100648000023DCE705F00F052401E4B2034B5C55F9
:10065800EBE700BF00ED00E0A847000814ED00E05C
:1006680010B5041E0ADB002C07DB04F01F02640926
:1006780001239340044A42F8243010BDBE210348A8
:1006880003F03FFDEFE700BF00E100E0A8470008E6
:100698000138B0F1807F0AD2064B5860064AF02133
:1006A80082F823100020986007221A607047012002
:1006B800704700BF10E000E000ED00E02DE9F043D6
:1006C80083B080460E46A24B984217D003F580634C
:1006D800984213D003F5806398420FD003F58063E6
:1006E80098420BD003F58063984207D003F5406326
:1006F800984203D0B321974803F003FD33689AB2B8
:1007080012B11B0C1B041BB1B421924803F0F9FC75
:100718007368012B1ED9112B1CD0022B1AD0122B57
:1007280018D08D4A934215D002F58012934211D009
:1007380002F5801293420DD0A2F5F812934209D027
:1007480002F58012934205D002F58012934201D03F
:10075800032B04D1B368022B06D8002445E0B52149
:100768007C4803F0CEFCF5E7B6217A4803F0C9FCD3
:10077800F3E7C821774803F0C4FC4AE0042300E00B
:1007880000238B4003430232744941F82230744BF2
:100798001A68FB4303EA0201706810F4803F01D035
:1007A80047EA02016E4A1160526803EA0201706862
:1007B80010F4003F01D047EA0201694A516092688B
:1007C80003EA0201706810F4801F01D047EA0201B1
:1007D800634A9160D2681340716811F4001F01D018
:1007E80047EA02035E4AD36001340F2C00F2AC8062
:1007F8000125A54037682F40BD42F5D173685A1EC0
:10080800012A03D9112B01D0122B19D1F368032B1C
:10081800AFD8D8F80820610003238B4022EA0302EE
:10082800F3688B401343C8F80830D8F8042022EA4C
:1008380005027368C3F30015A5401543C8F80450B2
:10084800D8F80C204FEA4409032505FA09F5ED43C9
:100858002A40B36803FA09F31343C8F80C307368E5
:10086800022B01D0122B2BD13369CBB1092B17D016
:10087800012B15D0022B13D0042B11D0052B0FD030
:10088800062B0DD0072B0BD0082B09D00A2B07D02D
:100898000C2B05D00F2B03D0E0212E4803F031FCA0
:1008A800E208083258F8220004F0070399000F23E1
:1008B8008B4020EA030033698B40034348F8223019
:1008C800D8F800301D40736803F0030303FA09F3F6
:1008D8001D43C8F80050736813F0805F84D000236C
:1008E8000193204B5A6C42F480425A645B6C03F4C7
:1008F80080430193019BA208911C184B53F82100D7
:1009080004F0030399000F238B4020EA0300104BE7
:1009180098453FF435AF03F5806398450ED003F54D
:10092800806398450CD003F5806398450AD003F599
:10093800806398453FF422AF072322E7012320E78D
:1009480002231EE703231CE703B0BDE8F08300BFC2
:1009580000000240E4470008000011100038014080
:10096800003C01400038024070B5064615460C466A
:1009780029B1012D09D875B92404B46170BD40F2BC
:100988009F11064803F0BDFBF3E74FF4D07103480D
:1009980003F0B7FBEFE7B461F0E700BFE4470008F6
:1009A80008B5054B5B69034200D108BD024B58618D
:1009B80003F00AFBF9E700BF003C0140F8B5066800
:1009C800346A04F00F07C4F34343C4F30A14022B38
:1009D8002ED16CB307EB8702D3000344596C39B3AB
:1009E80005462246304602F0B7F9BA003A44D30029
:1009F8002B445A6C22445A64DA6C2244DA6406EBBB
:100A08004713D3F810150B4A0A408AB1D3F80025CA
:100A180022F0804242F00042C3F80025BB00D919F9
:100A2800CA002A4492F8503083F0010382F850300B
:100A3800F8BD00BF0000F81FF0B585B09DF828503C
:100A48009DF82C60BDF8307090F8B842012C41D068
:100A5800012480F8B8424FEA810C8C444FEACC0458
:100A680004444FF0000C84F83DC084F83830A4F8F2
:100A7800407084F8391084F83F6002F07F0C84F8E5
:100A88003AC012F0800F1BD101EB810C4FEACC0465
:100A980004444FF0000C84F83BC0044601EB810C81
:100AA8004FEACC00204480F83C500297019600950C
:100AB800206802F034FA002384F8B83205B0F0BD9B
:100AC80001EB810C4FEACC0404444FF0010C84F88C
:100AD8003BC0E2E70220F1E790F8B832012B0BD0D7
:100AE80010B50446012380F8B832006802F0A0FA75
:100AF800002084F8B80210BD0220704700284ED0AC
:100B0800F0B58BB006460368B3F1A04F03D07A2145
:100B1800244803F0F6FA346896F8B932002B38D036
:100B2800032386F8B932E36B13F4807F01D10023E5
:100B38003361306802F0B7F8344654F810CB6D468C
:100B48000FCC0FC50FCC0FC594E8030085E8030050
:100B5800371D97E80E00604602F05AF80121306808
:100B680002F0A7F8344654F810CB6D460FCC0FC5E9
:100B78000FCC0FC594E8030085E8030097E80E0042
:100B8800604602F049F9012386F8B93200200BB01B
:100B9800F0BD86F8B832304603F0A4FBC0E7012068
:100BA800704700BF20480008F8B59DF81870BDF8D8
:100BB80020608D000D44EC00044484F83B2084F848
:100BC8003F306FB901EB8105EC000444032584F83C
:100BD8004250032B00F29680DFE803F00A8D2F5E67
:100BE80001EB8105EC000444022584F84250F0E74B
:100BF800012F40F08780002A40F0848036B901EB4D
:100C08008102D3000344012283F8512001EB8102C1
:100C1800D300034493F851303BB901EB8102D30070
:100C28000344002283F842206CE001EB8102D300E8
:100C38000344022283F8422064E0B2B901EB810246
:100C4800D300034493F851303BB901EB8102D30040
:100C58000344002283F8422054E001EB8102D300D0
:100C68000344022283F842204CE001EB8102D300C6
:100C7800034493F850303BB901EB8102D30003449D
:100C8800002283F842203DE001EB8102D3000344B7
:100C9800022283F8422035E0B2B901EB8102D30089
:100CA800034493F851303BB901EB8102D30003446C
:100CB800002283F8422025E001EB8102D30003449F
:100CC800022283F842201DE001EB8102D300034495
:100CD80093F850303BB901EB8102D3000344002262
:100CE80083F842200EE001EB8102D3000344022284
:100CF80083F8422006E001EB8102D300034400227E
:100D080083F842208A005418E3000344079C5C647B
:100D18009E64002483F85C40DC6483F8391083F80F
:100D28005D401144CB0003F13801027C01440068A6
:100D380002F0F8F9F8BD30B583B005460468D4F878
:100D480040340193D4F840340093009B23F02E03E1
:100D58000093019B13F0020F07D0019B13F0010FC2
:100D680028D1009B43F002030093019B13F0080F66
:100D780013D0009B43F008030093019B13F0040F6A
:100D880034D0AB69022B1CD0EB68012B29D0284644
:100D980003F009FB284603F0F9FA019B13F0200F32
:100DA80003D0009B43F020030093009BC4F8403419
:100DB80003B030BDA36923F00053A36103F0E6FA42
:100DC800CFE7019B03F4C023B3F5802F04D00121A2
:100DD800286801F0DDFFDAE70221286801F0D8FF72
:100DE800D5E74EF66022C4F80424D0E7284603F07D
:100DF800E0FAD4F8403423F02E03C4F840342A68CB
:100E0800936943F000539361C7E7F8B506460D466A
:100E1800076807EB411707F5A064A36813F0040FF0
:100E28003ED00423A360E36843F00203E360A368B1
:100E380013F4007F6AD1A36813F0010F00F08780D4
:100E480033694BB1AA002A44D30033449A6C216910
:100E5800C1F31201521ADA64AA002A44D3003344B7
:100E6800012283F85D2000219965A26093F83F3044
:100E7800002B57D0022B55D0032B5DD1D7F8003566
:100E880043F00053C7F8003505EB8502D30033441F
:100E9800012283F85C202946304603F083FA4BE0B0
:100EA800A36813F0200F02D02023A360BFE7A36834
:100EB80013F0080F17D1A36813F4806FB7D0E36855
:100EC80043F00203E360006802F0B2F81023A36065
:100ED80005EB8502D3003344082283F85D204FF4E4
:100EE8008063A360A3E7E36843F00203E36001EBD8
:100EF8008102D3000344052283F85D201023A360F8
:100F08000823A360006802F093F890E7E36843F0D1
:100F18000203E3602946306802F08AF84FF4007350
:100F2800A36013E0E36843F00203E36029463068F6
:100F380002F07EF81023A360AB005919CA003244AE
:100F480092F8503083F0010382F85030F8BDA3685E
:100F580013F0020F62D0E36823F00203E36005EBAD
:100F68008502D300334493F85D30012B17D0052B4D
:100F780029D0062B2FD0082B2DD0032B16D105EB0B
:100F88008502D3003344022283F85C20D7F8003569
:100F980023F0804343F00043C7F8003506E005EB33
:100FA8008502D3003344012283F85C200223A36026
:100FB80005EB8502D300334493F85C20294630467C
:100FC80003F0F0F9C2E705EB8502D30033440522AC
:100FD80083F85C20EAE7AA002A44D30033449A6DD8
:100FE80001329A65032A11D9AA002A44D30033444E
:100FF80000229A65042283F85C20D7F8003523F094
:10100800804343F00043C7F80035CFE705EB85027E
:10101800D3003344022283F85C20EEE7A36813F080
:10102800800F19D1A36813F0100F8FD005EB85023C
:10103800D300334493F83F30032B25D00BB1022B58
:1010480007D105EB8502D300334400229A65336942
:101058004BB31023A36079E7E36843F00203E3602E
:10106800AB005919CA003244916D013191652B4486
:10107800DA003244062382F85D302946306801F0F0
:10108800D7FF8023A36061E705EB8502D3003344D3
:1010980000229A65E36843F00203E360294630685A
:1010A80001F0C6FFD5E705EB8502D30033440322E0
:1010B80083F85D20E36843F00203E3602946306863
:1010C80001F0B6FFC5E7F8B5036803EB411303F574
:1010D800A064A26812F0040F24D10E460546A26847
:1010E80012F0200F25D02023A36001EB8102D3004A
:1010F8001A46034493F83D30012B19D18B00024462
:10110800002182F83D103344DA000244022382F8B9
:101118005C30E36843F00203E3603146006801F0A5
:1011280087FF05E00423A360E36843F00203E3605C
:10113800F8BDA26812F0400F34D1A26812F4007F03
:101148004AD1A26812F0010F51D1A26812F0080F1B
:1011580062D1A26812F0100F6FD08A000A44D3003F
:10116800034400229A65032283F85D2093F83D30FA
:101178006BB901EB8102D300034493F83C3033B9D7
:1011880001EB8102D3000344012283F83D20E36888
:1011980043F00203E3603146286801F049FF102359
:1011A800A360C5E78B005918CA000244042182F8DD
:1011B8005D10012182F83D103344DA000244002317
:1011C8009365E36843F00203E3603146006801F089
:1011D8002FFF4023A360ABE7E36843F00203E3601B
:1011E800006801F025FF4FF40073A360A0E78F00AB
:1011F8007A18D300034400229A65E36843F0020397
:10120800E360006801F014FF0123A360B919C80066
:10121800284480F85D308BE70823A360E36843F037
:101228000203E360006801F003FF06EB8601C800D3
:101238002844052380F85D307AE7A26812F0800F11
:1012480039D1A26812F4806F46D1A26812F0020F59
:101258003FF46EAFE26822F00202E26001EB810126
:10126800CA001146024492F85D20012A48D0032A98
:101278005AD0042A6CD0052A72D0062A01D0082A2E
:1012880059D1B1003144CA002A44916D01319165A8
:1012980003296BD9282202FB0652002191650421FB
:1012A80082F85C10D3F8002522F0804242F0004218
:1012B800C3F800253FE0E36843F00203E3600068F9
:1012C80001F0B6FE06EB8601CB002B44062283F81C
:1012D8005D208023A3602BE7E36843F00203E3600B
:1012E800006801F0A5FE1023A3604FF48063A3609B
:1012F80006EB8601CB002B44082283F85D2017E714
:101308000B460344012283F85C2093F83F30023BEC
:10131800DBB293420FD80B46034493F8512082F076
:10132800010283F8512006E006EB8602D30003444D
:10133800022283F85C200223A36006EB8602D30016
:101348002B4493F85C203146284603F02BF8EFE64F
:1013580006EB8602D3000344022283F85C20EAE706
:10136800282303FB060383F85C20E4E7282202FB1A
:101378000652022182F85C1094E7F8B50446056825
:10138800284601F001FD012800D0F8BD206801F0D1
:10139800F7FC0028F9D0206801F0F2FC10F4001FD7
:1013A80003D023684FF400125A61206801F0E8FC6A
:1013B80010F4801F03D023684FF480125A6120680C
:1013C80001F0DEFC10F0806F03D023684FF08062DC
:1013D8005A61206801F0D4FC10F0020F02D0236893
:1013E80002225A61206801F0CBFC10F0005F25D181
:1013F800206801F0C5FC10F0807F31D1206801F031
:10140800BFFC10F0080F2FD1206801F0B9FC10F0D4
:10141800007F30D1206801F0B3FC10F0100FB4D079
:101428002268936923F0100393612046FFF7C6FAF8
:101438002268936943F010039361A6E7D5F8403416
:1014480023F02E03C5F84034204602F0A5FF012101
:10145800206801F09DFC23684FF000525A61C7E7ED
:101468002046FFF768FCC9E7204602F089FF236899
:1014780008225A61C8E7206801F0D5FD0746002612
:1014880004E0F1B22046FFF71EFE0136A368B3421E
:1014980012D906F00F0327FA03F313F0010FF4D063
:1014A80005EB4613D3F8003513F4004FE9D0F1B239
:1014B8002046FFF7AAFCE8E723684FF000725A615C
:1014C800A8E738B590F8B832012B0ED004460125AC
:1014D80080F8B852006801F0E0FB2946206801F066
:1014E80077FC002084F8B80238BD0220FCE790F8A9
:1014F800B832012B0BD010B50446012380F8B8325E
:10150800006801F0BBFE002084F8B80210BD02207C
:10151800704701EB8101CB00184490F85C007047DC
:1015280001EB8101CB001844C06C704708B5006816
:1015380001F0F0FC08BD0000002800F03B81F8B580
:10154800044603689D4A93420CD002F58062934298
:1015580008D002F58062934204D040F2BD11984849
:1015680002F0CFFD6368013B964A934200F2A580E2
:10157800A3681BB1B3F5804F40F0A580E36823F45E
:101588007F7323F00303002B40F0A3802369B3F596
:10159800804F03D0B3F5404F40F0A1806369012B21
:1015A80000F2A380A36933F0FE0340F0A480E3694E
:1015B80013B1402B40F0A580236A13B1802B40F073
:1015C800A68094F83D30002B00F0A780242384F8EF
:1015D8003D302268136823F0010313602268136802
:1015E80043F4004313602268136823F40043136034
:1015F80001F06CF86268744B9A4200F29480734B65
:1016080098428CBF00230123002B40F0D580704BFB
:10161800A3FB00239B0C21684A6822F03F021A436F
:101628004A6025682A6A22F03F02666866498E4247
:101638007FD8013313432B622568E96921F44F41B0
:1016480021F0FF016368604A93427CD801385B004F
:10165800B0FBF3F30133C3F30B03042B38BF0423AC
:101668000B43EB6121680B6823F0C003E269206A31
:10167800024313430B6021688B6823F4034323F070
:10168800FF032269E068024313438B602168CB683B
:1016980023F0FF036269A06902431343CB60226809
:1016A800136843F00103136000202064202384F8AA
:1016B8003D30206384F83E00F8BD4FF4DF714048A8
:1016C80002F01FFD54E740F2BF113D4802F019FD3A
:1016D80054E74FF4E0713A4802F013FD56E740F240
:1016E800C111374802F00DFD58E74FF4E171344855
:1016F80002F007FD56E740F2C311314802F001FD40
:1017080055E74FF4E2712E4802F0FBFC54E740F233
:10171800C5112B4802F0F5FC53E784F83C3020460D
:1017280002F048FB52E72B4B98428CBF0023012361
:101738006AE74FF4967101FB03F32749A1FB0313F2
:101748009B09013376E7A268BAB9461E03EB430743
:10175800B6FBF7F60136C6F30B06B6FA86F6760937
:1017680036BBC2B9013803EB4303B0FBF3F30133D3
:10177800C3F30B0242F4004372E7461E03EB8307F0
:1017880007EB8707B6FBF7F60136C6F30B06B6FA82
:1017980086F67609E4E7013803EB830303EB83035A
:1017A800B0FBF3F20132C2F30B0242F4404357E7B5
:1017B800012355E70120704701207DE700540040D0
:1017C800584800087F1A0600A08601007F841E0082
:1017D80083DE1B43FF083D00D34D6210002800F054
:1017E8003E8170B5044603689E4A934214D0A2F520
:1017F8007842934210D002F5806293420CD002F5F1
:101808007842934208D002F5E052934204D040F265
:101818001511954802F075FC636843B1B3F5807FF4
:1018280005D0B3F5007F02D0B3F5407F7FD1A36820
:101838003BB1102B05D0202B03D0302B01D0B02B7F
:101848007BD1E368012B03D9032B01D0052B7AD177
:101858002369B3F5007F01D0002B7AD16369A3F522
:10186800FA51824A914201D9022B78D1A3690BB16E
:10187800082B7AD1E369012B7DD894F84130002BED
:101888007FD0022284F841202168CB6923F47B634E
:1018980023F00F03CB6123681A626369934200F057
:1018A8009280E368002B74D11025A368202B00D800
:1018B8006D00012001F080F82369B3F5007F6AD03C
:1018C800B0FBF5F000EB800043006269B3FBF2F374
:1018D8000533674AA2FB0323DB0803F001029B1AC6
:1018E8005B081202991EFD296FD821690A432168F5
:1018F80013430B622168CB6923F47B6323F00F0346
:101908006268A0680243E0680243A0690243134387
:1019180043F40063CB61236A012B5CD8236A012B53
:101928005FD000206064012384F8413070BD4FF41B
:101938008B714D4802F0E5FB79E740F217114A48F0
:1019480002F0DFFB7DE74FF48C71474802F0D9FBCA
:101958007EE740F21911444802F0D3FB7EE74FF4CA
:101968008D71414802F0CDFB80E740F21B113E48E3
:1019780002F0C7FB7EE74FF48E713B4802F0C1FBD3
:101988007BE784F840303B4B6363204602F086FADD
:1019980077E7202589E7E36853B1AD00B0FBF5F0A0
:1019A80000EB800043006269B3FBF2F3053390E774
:1019B800ED00B0FBF5F000EB800043006269B3FB7B
:1019C800F2F3053385E700228CE7636C43F01003DC
:1019D80063640120AAE740F2B711234802F091FBA3
:1019E8009CE7254B63632268244B9A421FD04FF033
:1019F8004022D36923F47B6323F00F03D361226869
:101A08001E4B9A4215D04FF0402302221A622268D8
:101A18001A4B9A4210D04FF04021CA6992B26368BB
:101A2800B3F5007F0AD0C3B94FF4807608E0144AB2
:101A3800DFE7A3F58063E8E71149EEE74FF4807626
:101A4800A068E568238B2B439BB203439BB23343C7
:101A5800134343F40063CB6163E70026F0E70120FA
:101A6800704700BF0030014090480008C0CE020017
:101A7800CDCCCCCCFF1A0008091D00080038004066
:101A880000340040704708B5426A03681288DA607B
:101A9800436A02334362438D013B9BB24385438DC6
:101AA8009BB203B108BD0268536823F0A0035360DA
:101AB800012380F84130FFF7E5FFF3E7704708B5E9
:101AC8000368DA68C36A1A80C36A0233C362438E42
:101AD800013B9BB24386438E9BB203B108BD0268AB
:101AE800536823F060035360012380F84130FFF707
:101AF800E5FFF3E7704710B584B0044602689368C1
:101B0800039390F84130DBB2042B06D094F84130AF
:101B1800DBB2032B2CD004B010BD039B13F0010FD4
:101B280003D0536813F0400F1FD1039B13F0400FED
:101B3800ECD023685A6812F0200FE7D05A6822F0D8
:101B480060025A60002301932368DA6801929B6857
:101B58000193019B012384F84130636C43F0020335
:101B680063642046FFF7C6FFD0E7FFF7A8FFDCE76E
:101B7800039B13F0020F04D023685B6813F0800FF7
:101B88001DD1039B13F0080FC5D023685A6812F0C3
:101B9800200FC0D05A6822F0A0025A600023029396
:101BA80023689B680293029B012384F84130636C8D
:101BB80043F0040363642046FFF79CFFABE720462D
:101BC800FFF761FFDDE7704708B5436A9A1C426278
:101BD80002681B88D360438D013B9BB24385438DCC
:101BE8009BB23BB90268536823F0A0035360438E4D
:101BF8009BB203B108BD012380F84130FFF7E3FF32
:101C0800F8E7000008B50268144B9A421BD04FF061
:101C18004023DA68C36A991CC1621A80438E013B6B
:101C28009BB24386438E9BB263B902680B4B9A42C0
:101C38000CD04FF04022536823F060035360438D6B
:101C48009BB22BB108BDA3F58063E2E7044AF2E733
:101C5800012380F84130FFF7B6FFF3E70038004072
:101C68000034004008B5436A9A1C42621A88016829
:101C7800124B994217D04FF04023DA60438D013B55
:101C88009BB24385438D9BB263B902680B4B9A4262
:101C98000CD04FF04022536823F0A0035360438ECA
:101CA8009BB22BB108BDA3F58063E6E7044AF2E7CF
:101CB800012380F84130FFF786FFF3E70038004042
:101CC8000034004008B50368DA68C36A991CC16229
:101CD8001A80438E013B9BB24386438E9BB23BB92D
:101CE8000268536823F060035360438D9BB203B1CD
:101CF80008BD012380F84130FFF765FFF8E70000D1
:101D080010B586B0044603689A680592704A9342F3
:101D18006FD04FF04022916804915B680393536839
:101D280002936368B3F5007F01D0002B70D1059B47
:101D380013F0020F03D0039B13F0800F5CD1049BB8
:101D480013F0010F03D0029B13F0400F58D1049BEE
:101D580013F0400F24D0029B13F0200F20D02268EC
:101D68005B4B9A4250D04FF04022536823F06003F7
:101D780053602268536823F0A00353600023009344
:101D88002368DA6800929B680093009B012384F81B
:101D98004130636C43F0020363642046FFF7AAFEF8
:101DA800059B13F0080F22D0039B13F0200F1ED0C1
:101DB8002268536823F0A00353602268444B9A4278
:101DC80024D04FF04022536823F06003536000236F
:101DD800019323689B680193019B012384F8413098
:101DE800636C43F0040363642046FFF783FE06B088
:101DF80010BDA2F580628EE72046FFF7E5FE9EE75C
:101E08002046FFF7FFFEA2E7324AAEE7314ADAE79B
:101E1800049B13F0020F03D0029B13F0800F4AD1EA
:101E2800059B13F0010F03D0039B13F0400F46D11D
:101E3800059B13F0400F1CD0039B13F0200F18D004
:101E48002268536823F0600353602268204B9A424B
:101E580039D04FF04022536823F0A0035360012388
:101E680084F84130636C43F0020363642046FFF753
:101E780041FE049B13F0080FB9D0029B13F0200F0A
:101E8800B5D02268124B9A421FD04FF040225368B7
:101E980023F0A00353602268536823F06003536063
:101EA800012384F84130636C43F0040363642046E3
:101EB800FFF720FE9BE72046FFF7D4FEB0E7204659
:101EC800FFF700FFB4E7034AC5E7024ADFE700BFB0
:101ED8000038004000340040002800F0638270B5EC
:101EE80082B0044603680F2B39D8236813F0010F1A
:101EF8004DD063682BB1B3F5803F02D0B3F5A02F66
:101F080032D1A54B9B6803F00C03042B36D0A24BAF
:101F18009B6803F00C03082B2BD06368B3F5803F54
:101F28005FD0B3F5A02F62D09B4B1A6822F48032A1
:101F38001A601A6822F480221A606368002B60D045
:101F4800FEF710FB0546944B1B6813F4003F1ED1A7
:101F5800FEF708FB401B6428F5D9032027E2E82197
:101F68008E4802F0CEF8C0E7ED218C4802F0C9F89F
:101F7800C7E7894B5B6813F4800FCED0864B1B688C
:101F880013F4003F03D06368002B00F00D82236830
:101F980013F0020F67D0E368012B41D823691F2B88
:101FA80044D87D4B9B6813F00C0F4AD07A4B9B6842
:101FB80003F00C03082B3FD0E368002B77D0784B55
:101FC80001221A60FEF7CEFA0546734B1B6813F020
:101FD800020F63D1FEF7C6FA401B0228F5D9032089
:101FE800E5E16D4A136843F480331360A5E76A4B53
:101FF8001A6842F480221A601A6842F480321A6021
:102008009BE7FEF7AFFA0546634B1B6813F4003FE6
:10201800BDD0FEF7A7FA401B6428F5D90320C6E116
:1020280040F21F115D4802F06CF8B7E74FF4907169
:102038005A4802F066F8B4E7574B5B6813F4800F10
:10204800BAD1554B1B6813F0020F04D0E368012B7B
:1020580001D00120ABE1504A136823F0F80321694D
:1020680043EAC1031360236813F0080F49D063697A
:10207800012B2ED8636993B34A4B01221A60FEF7ED
:1020880071FA0546444B5B6F13F0020F39D1FEF726
:1020980069FA401B0228F5D9032088E13E4A1368F3
:1020A80023F0F803216943EAC1031360DBE73C4BE3
:1020B80000221A60FEF756FA0546374B1B6813F0E4
:1020C800020FD0D0FEF74EFA401B0228F5D90320A4
:1020D8006DE14FF4B071314802F013F8CAE7314BA3
:1020E80000221A60FEF73EFA05462B4B5B6F13F091
:1020F800020F06D0FEF736FA401B0228F5D9032056
:1021080055E1236813F0040F00F08780A368012BC2
:1021180001D9052B38D1204B1B6C13F0805F39D1C6
:10212800002301931C4B1A6C42F080521A641B6CFA
:1021380003F080530193019B01251B4B1B6813F48B
:10214800807F33D0A368012B44D0052B48D0124B95
:102158001A6F22F001021A671A6F22F004021A6736
:10216800A368002B46D0FEF7FDF906460A4B1B6F05
:1021780013F0020F4FD1FEF7F5F9801B41F28833B7
:102188009842F3D9032012E14FF4C671034801F0D5
:10219800B8FFC0E70025D0E700380240C84800086B
:1021A80000004742800E474200700040834A13688F
:1021B80043F480731360FEF7D5F906467F4B1B681E
:1021C80013F4807FBED1FEF7CDF9801B0228F5D924
:1021D8000320ECE07A4A136F43F001031367BFE76B
:1021E800774B1A6F42F004021A671A6F42F0010225
:1021F8001A67B5E7FEF7B6F90646714B1B6F13F081
:10220800020F08D0FEF7AEF9801B41F288339842DE
:10221800F3D90320CBE0002D3AD1A369022B3DD896
:10222800A369002B00F0C280654A926802F00C0294
:10223800082A00F08F80022B78D1E36913B1B3F537
:10224800800F31D1236A3F2B34D8636AC03BF02B0F
:1022580036D8A36A022B05D0042B03D0062B01D055
:10226800082B33D1E36A023B0D2B35D8554B00229E
:102278001A60FEF777F90546514B1B6813F0007F8B
:1022880030D0FEF76FF9401B0228F5D903208EE005
:102298004B4A136C23F080531364BEE740F2CF110E
:1022A800494801F02EFFBBE74FF4EC71464801F0B6
:1022B80028FFC7E740F2D911434801F022FFC4E7DD
:1022C8004FF4ED71404801F01CFFC2E740F2DB110A
:1022D8003D4801F016FFC5E74FF4EE713A4801F0AA
:1022E80010FFC3E7E369226A1343626A43EA821371
:1022F800A26A5208013A43EA0243E26A43EA0263E5
:102308002F4A53602F4B01221A60FEF72BF904461F
:102318002B4B1B6813F0007F06D1FEF723F9001B37
:102328000228F5D9032042E0002040E0254B002296
:102338001A60FEF717F90446214B1B6813F0007F5B
:1023480006D0FEF70FF9001B0228F5D903202EE06E
:1023580000202CE0012B2CD0194B9B6803F4800142
:10236800E269914201D0012021E003F03F02216A95
:102378008A4201D001201AE0616A47F6C0721A4009
:102388008A4201D0012012E003F44032A16A8A4255
:1023980001D001200BE003F07063E26A93420AD097
:1023A800012004E001207047012000E0002002B075
:1023B80070BD0120FBE70020F9E700BF0070004076
:1023C8000038024060004742C8480008324B9B680A
:1023D80003F00C03042B5CD0082B01D02F48704766
:1023E8002DE9F04B2C4B5A6802F03F025B6813F45E
:1023F800800F2BD0284B5B68C3F388131E46002739
:102408005C010025E41A65EB0705A90141EA94611E
:10241800A001001B61EB0501CB0043EA5073C40027
:10242800A01943EB07014B0243EAD053440220466C
:1024380019460023FDF7CCFE174B5B68C3F3014335
:1024480001335B00B0FBF3F0BDE8F08B124B5B6827
:10245800C3F388131E4600275C010025E41A65EBC8
:102468000705A90141EA9461A001001B61EB050180
:10247800CB0043EA5073C400A01943EB07018B0259
:1024880043EA90538402204619460023FDF7A0FE34
:10249800D2E70348704700BF003802400024F40028
:1024A80000127A00002800F0FA8070B504460D4644
:1024B8000368013B0E2B11D8072D15D87A4B1B68E2
:1024C80003F00F03AB4215D2EBB2774A13701368CF
:1024D80003F00F03AB420DD0012070BD40F2512133
:1024E800724801F00EFEE7E740F252216F4801F012
:1024F80008FEE3E7236813F0020F29D013F0040F56
:1025080004D06B4A936843F4E0539360236813F054
:10251800080F04D0664A936843F460439360A36845
:102528007BB1802B0DD0902B0BD0A02B09D0B02BDA
:1025380007D0C02B05D0D02B03D0E02B01D0F02B37
:1025480033D15B4A936823F0F003A1680B4393608F
:10255800236813F0010F42D06368032B2BD86368FC
:10256800012B2ED09A1E012A32D9514A126812F034
:10257800020F00F096804E498A6822F00302134346
:102588008B60FDF7EFFF0646494B9B6803F00C0391
:102598006268B3EB820F22D0FDF7E4FF801B41F2A3
:1025A80088339842F0D9032097E740F275213F48D5
:1025B80001F0A7FDC5E74FF41F713C4801F0A1FDEC
:1025C800CDE73B4A126812F4003FD4D1012084E7DA
:1025D800374A126812F0007FCDD101207DE7324BD7
:1025E8001B6803F00F03AB4209D9EAB22E4B1A70ED
:1025F8001B6803F00F03AB4201D001206DE723688D
:1026080013F0040F14D0E3685BB1B3F5805F08D012
:10261800B3F5A05F05D0B3F5C05F02D0B3F5E05FB6
:1026280031D1234A936823F4E053E1680B43936064
:10263800236813F0080F15D023695BB1B3F5805FE9
:1026480008D0B3F5A05F05D0B3F5C05F02D0B3F5ED
:10265800E05F1ED1164A936823F46043216943EA78
:10266800C1039360FFF7B2FE114B9B68C3F30313DA
:10267800104AD35CD840104B1860104B1868FDF70F
:1026880027FF002029E740F2BA21084801F039FD68
:10269800C7E740F2C121054801F033FDDAE7012020
:1026A8007047012019E700BF003C0240C8480008F5
:1026B800003802409047000828000020040000204D
:1026C800014B1868704700BF2800002008B5FFF7C5
:1026D800F7FF044B9B68C3F38223034AD35CD840BB
:1026E80008BD00BF00380240A047000830B583B0DD
:1026F80004460368013B0E2B21D8236813F0050F0D
:1027080051D0E368023B052B1FD8A368C03BF02BD0
:1027180021D86368023B3D2B23D8A04B00221A60C6
:10272800FDF720FF05469E4B1B6813F0006F1ED077
:10273800FDF718FF401B0228F5D903200DE140F6EC
:10274800D911984801F0DDFCD7E74FF41E61954890
:1027580001F0D7FCD9E740F6E111924801F0D1FC2D
:10276800D7E740F6E3118F4801F0CBFCD5E7636863
:10277800A26843EA8213E26843EA0273884AC2F80D
:102788008430864B01221A60FDF7ECFE0546844B27
:102798001B6813F0006F06D1FDF7E4FE401B02280A
:1027A800F5D90320D9E0236813F0020F00F0CD809B
:1027B8002369B3F5807F7ED0B3F5007F7BD07A4A5A
:1027C800934278D002F58032934274D002F5803279
:1027D800934270D002F5803293426CD002F5803279
:1027E800934268D002F58032934264D002F5803279
:1027F800934260D002F5803293425CD002F5803279
:10280800934258D002F58032934254D002F5803278
:10281800934250D002F5803293424CD002F5803278
:10282800934248D002F58032934244D002F5803278
:10283800934240D002F5803293423CD002F5803278
:10284800934238D002F58032934234D002F5803278
:10285800934230D002F5803293422CD002F5803278
:10286800934228D002F58032934224D002F5803278
:10287800934220D002F5803293421CD002F5803278
:10288800934218D002F58032934214D002F5803278
:10289800934210D002F5803293420CD002F5803278
:1028A800934208D002F58032934204D040F61221B8
:1028B8003C4801F026FC00230193394B1A6C42F086
:1028C80080521A641B6C03F080530193019B374AB2
:1028D800136843F480731360FDF744FE0546334BD9
:1028E8001B6813F4807F06D1FDF73CFE401B0228CD
:1028F800F5D9032031E02A4B1B6F13F4407312D033
:10290800226902F440729A420DD0254B1A6F22F4C4
:102918004072274901200860002008601A671B6F71
:1029280013F0010F1BD1236903F44072B2F5407F05
:1029380026D01B4A936823F4F813936018490B6F49
:102948002269C2F30B0213430B67236813F0080FC5
:1029580021D0227D174B1A60002003B030BDFDF74F
:1029680001FE05460E4B1B6F13F0020FDBD1FDF77E
:10297800F9FD401B41F288339842F3D90320ECE774
:1029880007498A6822F4F81223F0704323F440734D
:1029980013438B60D2E70020DFE700BF680047429F
:1029A800003802400049000800030200007000409F
:1029B800400E4742E011474201282CD1184B9B6832
:1029C80013F4000303D0012B27D116487047144B8A
:1029D8005B6813F4800F15D0114BD3F8843003F0E3
:1029E8003F031148B0FBF3F00D4AD2F88430C3F32B
:1029F800881300FB03F0D2F88430C3F30273B0FBF2
:102A0800F3F07047064BD3F8843003F03F030748D0
:102A1800B0FBF3F0E8E7002070470020704700BFE4
:102A2800003802400080BB0000127A000024F40045
:102A3800002800F0C88010B504460368634A934232
:102A480014D0A2F57842934210D002F580629342E6
:102A58000CD002F57842934208D002F5E052934236
:102A680004D04FF4A1715A4801F04BFB636813B1CD
:102A7800B3F5827F6BD1A3682BB1B3F5806F02D019
:102A8800B3F5004F69D1E368B3F5006F01D0002BAF
:102A980069D1A369B3F5007F03D013B1B3F5802FD3
:102AA80067D1E3696BB1082B0BD0102B09D0182B19
:102AB80007D0202B05D0282B03D0302B01D0382B62
:102AC8005DD1236A0BB1802B5FD1636A0BB1102BE8
:102AD80061D1636A33B923690BB1022B61D1636990
:102AE800012B64D80023A36294F85130002B64D0E2
:102AF800022384F851302268136823F040031360DE
:102B08006368A2681343E268134322691343626946
:102B18001343A26902F400721343E2691343226A61
:102B28001343A16A22680B431360638B03F0040309
:102B3800616A22680B4353602268D36923F40063F7
:102B4800D36100206065012384F8513010BD40F244
:102B580043111F4801F0D5FA8DE74FF4A2711C48C4
:102B680001F0CFFA8FE740F24511194801F0C9FA90
:102B78008FE74FF4A371164801F0C3FA91E740F2CA
:102B88004711134801F0BDFA9BE74FF4A4711048B0
:102B980001F0B7FA99E740F249110D4801F0B1FA8E
:102BA80097E74FF4A6710A4801F0ABFA97E740F2AD
:102BB8004D11074801F0A5FA94E784F850302046F3
:102BC80001F0C0FA94E70120704700BF00300140CF
:102BD8003C490008002301330C4A934211D802698A
:102BE800002AF8DA036943F0010303610023013383
:102BF800064A934207D8026912F0010FF7D1002064
:102C08007047032070470320704700BF400D030042
:102C180084B010B5044603A880E80E00089B012B79
:102C28001FD1A36B23F48033A363E36823F48403E5
:102C380023F04003E360E36823F44013E3600F9B51
:102C4800012B09D02046FFF7C5FF069B012B1BD09F
:102C5800BDE8104004B07047E36843F48013E360B4
:102C6800F0E7E36843F04003E3602046FFF7B2FF74
:102C78000C9B23B9A36B43F48033A363E5E7A36BF1
:102C880023F48033A363E0E7A36843F00603A3605B
:102C9800A36843F02003A360DAE7836843F00103E5
:102CA800836000207047836823F00103836000205D
:102CB800704708B5C36823F0C043C360012909D031
:102CC80069B9C36843F08043C3603220FDF750FC04
:102CD800002008BDC36843F00053C360F5E7012036
:102CE800F7E70000890141F0200101610023013369
:102CF800054A934205D8026912F0200FF7D1002047
:102D080070470320704700BF400D03001023036184
:102D180000230133054A934205D8026912F0100FC7
:102D2800F7D1002070470320704700BF400D030013
:102D380070B49DF80C4064B903339D0807E000EBBC
:102D4800023303F5805351F8046B1E600134AC4222
:102D5800F5D3002070BC70470332920800239342D9
:102D68000CD210B400F58054246841F8044B0133A8
:102D78009342F7D308465DF8044B704708467047FE
:102D88004269806910407047406900F0010070474F
:102D980010B400F58064D0F8003423F00303C0F8C1
:102DA8000034D0F8003401F003021343C0F80034B3
:102DB800012905D0022907D000205DF8044B70478F
:102DC8004BF680336360F7E741F270736360F3E7B3
:102DD80082B000230193D0F840340193019B23F083
:102DE8002E030193019B13F4805F01D101290CD0BC
:102DF800019B13F4805F05D021B9019B23F4805314
:102E0800C0F84034002002B07047019B43F480535F
:102E1800C0F84034ECE7000084B038B5044605A893
:102E280080E80E0025460023C4F8003EA36B43F457
:102E38000013A363A36B23F40023A363A36B23F4FE
:102E48008023A363E36B13F4807F10D0079B032BCD
:102E580006D0D4F8003423F00403C4F800340CE09E
:102E6800D4F8003443F00403C4F8003405E0D4F87F
:102E7800003423F00403C4F8003410212046FFF77F
:102E880031FF2046FFF742FF002209E005EB42131D
:102E98004FF0FF31C3F808150021C3F80C150132B3
:102EA800069B9342F2D801212046FFF791FFC820E4
:102EB800FDF75EFB0023A3614FF0FF336361E36B13
:102EC80013F4807F17D04FF40073636203F18073AB
:102ED800A3620D4BC4F80031089B1BB9A36943F0EA
:102EE8001003A361A269094B1343A3610020BDE845
:102EF800384004B070478023636203F5C003A362BF
:102F0800034BC4F80031E7E70003E000080020A302
:102F1800E000400000F58060806880B27047F0B53E
:102F280006469DF8184000EB411505F5A0604FF0E6
:102F3800FF378760032C65D8DFE804F002560218D3
:102F480040F29D47C76012F0800F09D1F76B17F464
:102F5800807F59D0C76847F06007C76000200CE041
:102F6800C76847F48077C760002006E040F29D6795
:102F7800C76012F0800F31D1002006F5806ED6F8B8
:102F8800187401F00F014FF0010C0CFA01F13943EC
:102F9800C6F81814B16941F00071B16112F0800FE0
:102FA80034D100269DF81410022932D000219B0547
:102FB80003F0FE53D20202F4F0421343A20402F4D7
:102FC80040221343BDF81C20C2F30A0213433343C3
:102FD8000B43C5F80035032C1ED0F0BDC76847F475
:102FE8008077C7600020C8E740F22527C76012F045
:102FF800800F01D10020C0E7C76847F4C077C760D9
:103008000020BAE70120B8E70020B6E74FF40046F1
:10301800C8E74FF40031CAE7D5F8003543F000534C
:10302800C5F80035D9E700F58060406980B270477F
:1030380010B400EB411101F5A064D1F80035C3F3D9
:1030480081433BB3022B25D0D1F8003543F08043B0
:10305800C1F80035D0F8103413F47F0F49D1D1F8F6
:10306800003523F00043C1F80035D1F8003543F0AE
:103078000043C1F80035D1F8003523F40043C1F806
:10308800003500230133B3F57A7F27D82268002A58
:10309800F8DB23E0D1F8003543F08043C1F8003570
:1030A800C36A13F47F0F1DD1D1F8003523F0004314
:1030B800C1F80035D1F8003543F00043C1F80035B8
:1030C800D1F8003523F40043C1F80035002301335B
:1030D800B3F57A7F02D82268002AF8DB00205DF871
:1030E800044B7047D1F8003543F00043C1F8003570
:1030F800F4E7D1F8003543F00043C1F80035EDE7B7
:1031080000EB4111064AC1F81025D1F8003523F02B
:10311800804343F00043C1F800350020704700BFEA
:103128000000088070B582B04C78C36B13F4807FC0
:1031380007D00B792BB912B94B79012B11D0012A81
:1031480013D00B69E3B10D892B44013BB3FBF5F3B5
:103158009BB2B3F5807F14D92D020D614FF48073B3
:103168000FE02146FFF7CCFF75E000EB4413D3F8DE
:103178000C5525F06005C3F80C5500234B71E0E7AA
:103188000123CD781DB10D8905FB03F50D610D698E
:10319800C5F31205374E06EAC3432B438D7A6D07F4
:1031A80005F0C04500EB44142B43C4F8103512B1A8
:1031B800CB68C4F8143500F58066B36813F0010FC6
:1031C800D4F8003523F00053C4F80035D4F800359E
:1031D8000CBF4FF0005500252B43C4F80035D4F838
:1031E8000055254B1D601D6825F080451D60CB7876
:1031F800C3B1214D2B6843F400432B601E4B1D685F
:1032080045F000451D601B68C4F800351ABBCB7833
:103218000BBB0B69FBB1CA79032A14D8DFE802F0AB
:10322800081E081E144D2B6823F400432B60E5E7A5
:103238000333C26A92B2C3F38F039A4203D28369FB
:1032480043F020038361CC684A780B8A00210091FF
:103258002146FFF76DFD002002B070BD03333269CF
:1032680092B2C3F38F039A42EDD2836943F080632D
:103278008361E8E70000F81FAC00002070B5054640
:103288000446FFF710FD10212846FFF72BFD2846BE
:10329800FFF73CFD00220AE004EB4211D1F80035AB
:1032A80023F0802343F08043C1F8003501320F2A10
:1032B800F2D90020034600E001300F2813D804EBB0
:1032C800401606F5A061D6F8002522F4004242F027
:1032D8004042C6F800250133B3F57A7FECD80A6876
:1032E800002AF8DBE8E74FF0FF33C5F814346B61C8
:1032F8002846FFF7D2FC002070BD0020704708B5B3
:1033080021220274202242740022428282820722F1
:10331800C28200F0A3FB08BD08B5A12202742122D5
:1033280042740022428282820722C28200F096FB07
:1033380008BD38B50446D0F87833D9694031FFF76D
:10334800EBFF054620B9D4F8C83302212046984738
:10335800284638BD38B50546D0F87833DC69217879
:1033680079B9217BB1B9617BF1B9D5F87833D869DE
:1033780028B101F033F9D5F878330022DA6100205A
:1033880038BD00F023FC2178284600F035FC0023E6
:103398002370E6E7284600F019FC217B284600F058
:1033A8002BFC00232373DEE7284600F00FFC617B2B
:1033B800284600F021FC00236373D6E770B584B07B
:1033C800044601230222114600F0EAF9FF2800F022
:1033D800A18006460146204600F0D8F9D4F8785373
:1033E800502001F0F3F8E861D4F87833DD691A2346
:1033F80003FB064393F84A3313F0800F72D16978C0
:10340800204600F0E8FB0146287094F81C336A78DF
:10341800688902900320019094F81D0300902046CB
:1034280000F0C4FB00222978204601F00DF80023A3
:103438001A460A21204600F0B3F9FF286CD01A2357
:1034480003FB004393F84A3313F0800F52D1AB7358
:103458001A2303FB0043B3F84C332B831A2303FBD3
:10346800004393F8523313F0800F4BD1AB731A23F8
:1034780003FB0040B0F854332B83A97B204600F0AF
:10348800AAFB6873E97B204600F0A5FB287394F833
:103498001C33AA7B697B288B02900226019694F83C
:1034A8001D030090204600F081FB94F81C33EA7B52
:1034B800297B688B0290019694F81D0300902046A2
:1034C80000F074FB002685F84C603246697B204684
:1034D80000F0BAFF3246297B204600F0B5FF30469F
:1034E80004B070BD6B701A2303FB0646B6F84C3364
:1034F8006B8184E7EB731A2303FB0043B3F84C3367
:103508006B83ABE7EB731A2303FB0040B0F854332B
:103518006B83B2E70220E3E70220E1E7704730B5AA
:1035280083B00546D0F87833DC6994F84D30012B28
:1035380003D0022B19D003B030BD606A228B9042B1
:103548000AD9637BE16901200090284600F0F6FA69
:10355800022384F84D30EEE7637BE1690122009293
:1035680082B2284600F0EAFAF2E7617B00F058FFE1
:10357800012805D00228DED1012384F84D30DAE78E
:10358800636A228B93420AD99B1A6362E3691A44DD
:10359800E261636A33B1012384F84D30CBE700233D
:1035A8006362F6E7002384F84D302846FFF7B6FF3C
:1035B800C1E7704738B50546D0F87833DC6994F828
:1035C8004E30032B02D0042B09D038BD237B628BED
:1035D800216A00F0C9FA042384F84E30F5E7217B0C
:1035E80000F01EFF0128F0D1217B284600F012FFD1
:1035F800A36A834202D0628B824206D3002384F8F6
:103608004E302846FFF7D5FFDFE71B1AA362236A6F
:1036180018442062032384F84E30D6E7704738B543
:103628000546D0F87833DC6994F84C30042B04D87C
:10363800DFE803F04C05163C4300012347E0A16C8A
:10364800FFF75DFE034630B1012840D0042384F81B
:103658004C3001233BE0022384F84C30012336E050
:1036680004F14001FFF758FE0346C0B9002384F86F
:103678004C30636C23F07F42A16C4B6823F07F438E
:103688009A4201D0012322E0226C0B689A4201D0B1
:1036980001231CE02846FFF7C1FF012317E001289A
:1036A80015D0042384F84C30012310E0FFF737FFCE
:1036B8002846FFF77FFF012309E0002100F0F5F914
:1036C80038B9002384F84C30012300E00023184661
:1036D80038BD0123FBE7002305E003F1E0020021E8
:1036E80040F8221001330E2BF7D9002304E0C2184A
:1036F800002182F81C110133B3F5007FF7D30023B2
:103708000370437001228270C0F8BC3302764021F6
:103718008171437680F81C3380F81D231846704762
:1037280008B50378DBB20B2B00D008BDD0F878338E
:10373800002BFAD09B699847F7E798B138B504464B
:103748000D4680F8C0230023C0F87833C0F87C33D6
:10375800FFF7C1FF0DB1C4F8C853204600F030FE92
:10376800002038BD022070470A4659B1D0F87C3392
:1037780053B9591CC0F87C13DC3300EB830042605A
:1037880000207047022070470220704790F83833B5
:103798008B4203D980F8201300207047022070471D
:1037A80070B4064600200AE01A2404FB056595F863
:1037B80045439C421AD0FF2B18D0441CE0B2012884
:1037C80013D805461A2404FB006494F843438C423A
:1037D80001D0FF29F1D11A2404FB056494F844436D
:1037E8009442E1D0FF2AE8D1DEE7FF2070BC7047A1
:1037F80010B5044600F04AFE0121204600F016FEEE
:10380800002010BDC0F8BC13704708B5D0F8BC3311
:103818000133C0F8BC33FFF783FF08BD012380F8EC
:103828001F337047002380F81F33704708B50378AB
:103838004BB9012380F81E33D0F8C8330BB10421EB
:103848009847002008BD90F81F33012BF9D10223B7
:103858000370F6E710B5044600F020FE21792046F3
:1038680000F0CAF96179204600F0C6F9002384F80F
:103878001E33D4F8C83313B1052120469847204693
:1038880000F004FE03232370002010BD30B583B080
:103898000446037E013B0A2B00F2DA80DFE803F0DE
:1038A800061037435664808C9FADC400427900F1FE
:1038B800100100F00CF902232376012003B030BD7B
:1038C800417900F0ADFD012805D004281BD002285D
:1038D80019D00120F2E7237CE28A4AB113F0800F65
:1038E80003D1052323760120E8E703232376E5E7C0
:1038F80013F0800F03D1072323760120DEE7092385
:1039080023760120DAE70B2323760120D6E7D0F8C7
:10391800BC33C38103798289816800F0FFF80423EE
:1039280023760120CAE7017900F07AFD012806D044
:10393800052800F08F80042804D00120BEE7092361
:103948002376F5E70B2323760120B7E743798289AD
:1039580001250095816800F0CBF8D4F8BC33E381E9
:10396800062323762846A9E7417900F059FD012866
:1039780007D0052808D002280AD004280CD0012036
:103988009CE70723237699E70C232376032095E702
:1039980005232376012091E70B23237602208DE768
:1039A80003790022114600F0B9F8D4F8BC33E3815A
:1039B80008232376012081E7017900F031FD0128F1
:1039C80005D0042807D0052846D0012076E70D2326
:1039D8002376002072E70B23237601206EE74379D4
:1039E800012500950022114600F082F8D4F8BC3376
:1039F800E3810A232376284660E7417900F010FD29
:103A0800012805D0022807D0042809D0012055E74D
:103A18000D232376002051E70923237601204DE763
:103A28000B232376012049E7437E0133DBB243763B
:103A3800022B07D9D0F8C8330621984700236376AC
:103A480002203BE700F02AFD01202076A07035E730
:103A5800012033E7032031E703202FE78378012B88
:103A680003D0022B09D0012305E081608281012364
:103A78000376022282701846704710B50446FFF795
:103A880005FF034630B103280AD0022806D10122D7
:103A9800A27003E00122A27000222276184610BD0F
:103AA8000122A27000222276F8E708B58378012B5C
:103AB80004D000221146FFF7D1FF08BD022303748A
:103AC80001234374002343828182C382F1E730B526
:103AD80085B01546002403940823029301910094AD
:103AE80023462246294600F0FCFC204605B030BD9E
:103AF80030B585B00C4619469DF8203090F81D5316
:103B080005B100230393029201940123009300233B
:103B18001A4600F0E6FC002005B030BD30B585B08F
:103B28001D4600240394029201910122009223462B
:103B3800294600F0D6FC204605B030BD30B585B02A
:103B48000C4619469DF8203090F81D5305B1002306
:103B5800039302920194012300930223002200F0B0
:103B6800C0FC002005B030BD30B585B01D4600242E
:103B7800039402920191012200920223294600F047
:103B8800B0FC204605B030BD00230A2B0BD803F14A
:103B9800E00250F8222012F4004F02D00133DBB2C9
:103BA800F3E798B270474FF6FF70704710B584B0CE
:103BB800BDF8204002949DF81C4001949DF81840DF
:103BC800009400F073FC002004B010BD08B500F0AC
:103BD80080FC002008BD38B505460C46FFF7D4FF29
:103BE8004FF6FF73984205D044F4004400F1E00317
:103BF80045F82340C0B238BD0A2906D8E03150F84C
:103C08002130C3F30E0340F8213000207047000034
:103C18002DE9F0418CB000240794089409940A9483
:103C28000B9401944C4B1A6B42F010021A631A6BF6
:103C380002F010020192019A02941A6B42F00402F7
:103C48001A631A6B02F004020292029A03941A6B26
:103C580042F080021A631A6B02F080020392039A00
:103C680004941A6B42F001021A631A6B02F0010203
:103C78000492049A05941A6B42F002021A631A6BB2
:103C880002F002020592059A06941A6B42F00802A5
:103C98001A631B6B03F008030693069B2F4E2246FC
:103CA80041F688713046FCF75FFEDFF8C8800122D4
:103CB80011464046FCF758FE294F22464FF23F0175
:103CC8003846FCF751FE042307930894099407A982
:103CD8003046FCF7F3FC41F68873079301250895F5
:103CE80009940A9407A93046FCF7E8FC32230793A5
:103CF8001C4B0893099407A93046FCF7DFFC07958D
:103D0800089509940A9407A94046FCF7D7FC07953B
:103D1800154B0893099407A91448FCF7CFFC022314
:103D280007930894099407A91148FCF7C7FC4FF2B8
:103D38003F030793089509940A9407A93846FCF7A6
:103D4800BDFC224621460620FCF744FC0620FCF771
:103D580087FC0CB0BDE8F08100380240001002403A
:103D6800000C024000001210000011100000024078
:103D7800000402400008024008B50B480B4B0360E2
:103D88000B4B436000238360C3604FF480420261A1
:103D980043618361C3610362FDF7CEFB00B908BDCF
:103DA80000F0AEF9FBE700BFD4000020005400404B
:103DB800A086010030B589B00023039304930593CE
:103DC800069307930268144B9A4201D009B030BD9C
:103DD80000250195114C236B43F002032363236BE9
:103DE80003F002030193019B4FF410730393122312
:103DF8000493012305930423079303A90848FCF7B8
:103E08005DFC0295236C43F400132364236C03F4D4
:103E180000130293029BD9E7005400400038024087
:103E28000004024008B50B480B4B03604FF40073C5
:103E3800436000238360C3600361084A4261836171
:103E4800C36101230362FDF7C9FC00B908BD00F096
:103E580057F9FBE7280100200038004000770100EF
:103E680008B50B480B4B03604FF400724260002307
:103E78008360C3600261084A42618361C36103626F
:103E8800FDF7ACFC00B908BD00F03AF9FBE700BF4C
:103E980070010020003C004000770100F0B58DB0B3
:103EA80000230793089309930A930B930368404AE6
:103EB800934204D03F4A934243D00DB0F0BD002452
:103EC80001943D4B1A6C42F480421A641A6C02F455
:103ED80080420192019A02941A6B42F004021A631A
:103EE8001A6B02F004020292029A03941A6B42F0CF
:103EF80002021A631B6B03F002030393039B042360
:103F080007930225089506230B932C4F07A93846DB
:103F1800FCF7D4FB08230793089509940A9405260F
:103F28000B9607A93846FCF7C9FB4FF4A053079333
:103F3800089509940A940B9607A92148FCF7BEFB3B
:103F4800BBE7002404941C4B1A6C42F400421A6428
:103F58001A6C02F400420492049A05941A6B42F017
:103F680001021A631A6B02F001020592059A06947F
:103F78001A6B42F004021A631B6B03F004030693E6
:103F8800069B102307930226089606250B9507A97A
:103F98000C48FCF793FB4FF4A45307930896099435
:103FA8000A940B9507A90548FCF788FB85E700BF2D
:103FB80000380040003C0040003802400008024041
:103FC8000004024000000240012800D0704708B5F4
:103FD800FCF7C8FA0B4B1B68C01A312800D808BD7B
:103FE800FCF7C0FA074B18605B681BB9054B012248
:103FF8005A60F4E7034B00225A609A6801329A60CB
:10400800EDE700BFB000002070B59AB03022002163
:104018000EA800F0EBFA002409940A940B940C946F
:104028000D940394049405940694079408940194B9
:104038001F4B1A6C42F080521A641B6C03F08053B9
:104048000193019B02941B4B1A6842F440421A6088
:104058001B6803F440430293029B01260E964FF41B
:1040680080330F93022514954FF48003159304238E
:104078001693C02217921893082319930EA8FDF7D8
:104088002BFF0F2309930A950B944FF4A0530C931D
:104098000D94032109A8FEF705FA0396C823059392
:1040A80005230493069503A8FEF720FB1AB070BDFC
:1040B800003802400070004008B5FCF72DFAFFF701
:1040C800A3FFFFF7A5FDFFF757FEFFF7ABFEFFF7CE
:1040D800C7FE00F017F800F0E5F8074B5A69002210
:1040E8005A6172B6054A926859690A435A6162B6BA
:1040F8003220FCF73DFAF0E7000C0240B000002047
:104108007047704708B50D480D4B03604FF4827334
:10411800436000238360C360036143614FF400720E
:104128008261C3610362436283620A23C362FEF74A
:104138007FFC00B908BDFFF7E3FFFBE7B8010020EB
:104148000030014000B589B0002303930493059320
:10415800069307930268154B9A4202D009B05DF89E
:1041680004FB0021019103F584335A6C42F4805218
:104178005A645A6C02F480520192019A02911A6BA5
:1041880042F001021A631B6B03F001030293029BC6
:10419800E023039302230493032306930523079341
:1041A80003A90348FCF78AFAD8E700BF00300140AA
:1041B8000000024082B0002100910B4B5A6C42F47F
:1041C80080425A645A6C02F480420092009A01912B
:1041D8001A6C42F080521A641B6C03F080530193EE
:1041E800019B02B0704700BF003802407047FEE7ED
:1041F800FEE7FEE7FEE770477047704708B5FCF733
:10420800A5F908BD08B50120FCF7CAFB08BD0000E8
:1042180008B50248FDF7B1F808BD00BFDC0500206D
:1042280008B503460B4A126842B10A4A10680344AB
:104238006A46934206D8074A136008BD054A0649EC
:104248001160F2E700F098F90C2303604FF0FF309B
:10425800F3E700BFBC000020A8080020054BD3F8F6
:10426800882042F47002C3F888204FF000629A60F8
:10427800704700BF00ED00E004290CD0052902D0EA
:10428800022904D07047064B03221A707047044B6A
:1042980002221A707047024B01221A70F2E700BF1F
:1042A800C400002008B501220B490C48FFF745FA65
:1042B80048B90B490948FFF757FA38B90748FFF7D3
:1042C80097FA30B908BDFFF71BFFF2E7FFF718FFB1
:1042D800F4E7FFF715FFF5E7814200081002002018
:1042E80008000020F0B589B00023039304930593D8
:1042F800069307930368B3F1A04F01D009B0F0BD4E
:10430800002501951C4C236B43F001032363236BA9
:1043180003F001030193019B08AE4FF4007346F8C4
:10432800143D164F31463846FCF7C8F94FF4E053B0
:104338000393022304930595032306930A23079303
:1043480031463846FCF7BAF9636B43F08003636380
:104358000295636C43F480436364636C03F48043A5
:104368000293029B2A4629464320FCF733F943204F
:10437800FCF776F9C2E700BF0038024000000240AF
:1043880008B5D0F8C002FFF740FA08BD08B5D0F864
:10439800C002FFF74BFA08BD08B5D0F8C002FFF716
:1043A80059FA08BD704708B5D0F8C002FFF736FAC9
:1043B80008BD08B5D0F8C002FFF734FA08BD000000
:1043C80090F8C033012B01D00020704710B5044687
:1043D8000F48C0F8C042C4F8C4034FF0A0430360BC
:1043E800082383600123C3600023036102228261E2
:1043F800C361FCF783FB40B90548FDF797F8014610
:104408002046FFF7FFF9002010BDFFF779FEF3E71C
:10441800DC05002008B5D0F8C403FDF781F808BD15
:1044280008B5D0F8C403FDF774F808BD08B590F8CE
:10443800C033012B04D0C820FCF79AF8002008BD2F
:10444800084600F063F8F6E710B4D0F8C43301EB7F
:104458008104E0000446184490F83B0048B901EB99
:104468008101C800034483F8512000205DF8044B03
:104478007047234483F85020F7E718B1022803D087
:1044880002207047002070470120704708B5D0F817
:10449800C403FDF716F8FFF7F0FF08BD08B5D0F81C
:1044A800C403FDF724F8FFF7E8FF08BD10B584B092
:1044B800D0F8C403BDF8204002949DF81C40019434
:1044C8009DF818400094FCF7B7FAFFF7D6FF04B040
:1044D80010BD08B5D0F8C403FCF7FEFAFFF7CDFF0E
:1044E80008BD10B584B0D0F8C4039DF824400394E7
:1044F800BDF820400294079C01949DF81840009450
:10450800FCF752FBFFF7B9FF04B010BD08B528B19E
:10451800002201210248FCF727FA08BD0122F8E72A
:1045280000080240DFF834D0002103E00C4B5B5850
:10453800435004310B480C4B42189A42F6D30B4AAD
:1045480002E0002342F8043B094B9A42F9D3FFF7F3
:1045580085FE00F017F8FFF7AFFD70470000022056
:1045680088490008000000209000002090000020EA
:10457800A4080020FEE70000014B1868704700BF40
:104588002C00002070B50D4E0D4CA41BA410002566
:10459800A54209D10B4E0C4C00F0EAF8A41BA4105C
:1045A8000025A54205D170BD56F82530984701353C
:1045B800EEE756F8253098470135F2E780490008BC
:1045C800804900088049000884490008024B0146D8
:1045D800186800F061B800BF2C000020024B0146AB
:1045E800186800F00BB800BF2C00002002440346F6
:1045F800934200D1704703F8011BF9E738B5054627
:10460800002945D051F8043C0C1F002BB8BFE41812
:1046180000F0ACF81F4A1368104633B963601460A1
:104628002846BDE8384000F0A2B8A3420CD921685A
:104638006218934204BF1A685B68636004BF52182B
:1046480022600460ECE713465A680AB1A242FAD91C
:1046580019685818A0420BD12068014458188242A2
:104668001960DDD1106852685A6001441960D7E7B3
:1046780002D90C232B60D3E7206821188A4204BF93
:1046880011685268626004BF091821605C60C7E75E
:1046980038BD00BFC800002070B5CD1C25F003054B
:1046A80008350C2D38BF0C25002D064601DBA94224
:1046B80003D90C233360002070BD00F057F8214A5D
:1046C8001468214691B9204C23681BB9304600F084
:1046D8003DF820602946304600F038F8431C24D1C4
:1046E8000C233360304600F042F8E4E70B685B1BAC
:1046F80018D40B2B0FD90B60CD50CC18304600F0D6
:1047080036F804F10B00231D20F00700C31AD3D09C
:104718005A42E250D0E78C424B6816BF6360136080
:104728000C46EBE70C464968CCE7C41C24F00304AC
:10473800A04205D0211A304600F008F80130CFD049
:104748002560DBE7C8000020CC00002038B5064C07
:104758000023054608462360FFF762FD431C02D18B
:10476800236803B12B6038BDA0080020704770474C
:10477800F8B500BFF8BC08BC9E467047F8B500BF46
:08478800F8BC08BC9E46704716
:1047900000000000000000000102030406070809F1
:1047A00000000000010203042E2E2F44726976657A
:1047B00072732F53544D3332463478785F48414CEE
:1047C0005F4472697665722F5372632F73746D3311
:1047D00032663478785F68616C5F636F7274657895
:1047E0002E6300002E2E2F447269766572732F534C
:1047F000544D3332463478785F48414C5F44726997
:104800007665722F5372632F73746D33326634780A
:10481000785F68616C5F6770696F2E6300000000ED
:104820002E2E2F447269766572732F53544D333296
:10483000463478785F48414C5F4472697665722FE0
:104840005372632F73746D3332663478785F6861A6
:104850006C5F6863642E63002E2E2F447269766548
:1048600072732F53544D3332463478785F48414C3D
:104870005F4472697665722F5372632F73746D3360
:1048800032663478785F68616C5F6932632E6300EA
:104890002E2E2F447269766572732F53544D333226
:1048A000463478785F48414C5F4472697665722F70
:1048B0005372632F73746D3332663478785F686136
:1048C0006C5F6932732E63002E2E2F4472697665F9
:1048D00072732F53544D3332463478785F48414CCD
:1048E0005F4472697665722F5372632F73746D33F0
:1048F00032663478785F68616C5F7263632E630040
:104900002E2E2F447269766572732F53544D3332B5
:10491000463478785F48414C5F4472697665722FFF
:104920005372632F73746D3332663478785F6861C5
:104930006C5F7263635F65782E6300002E2E2F44D8
:104940007269766572732F53544D333246347878DA
:104950005F48414C5F4472697665722F5372632FD2
:1049600073746D3332663478785F68616C5F73702E
:08497000692E6300434443007B
:0849780090B8FF7F0100000070
:04498000BD0100086D
:04498400990100088D
:104988000100000010000000744900080200000047
:10499800C53300085D3300083B330008273600089C
:1049A80003330008000000000024F4003000002059
:1049B80000000000000000000000000000000000EF
:1049C80000000000000000000000000000000000DF
:1049D80000000000000000000000000000000000CF
:1049E80000000000000000000000000000000000BF
:1049F80000000000000000000000000000000000AF
:104A0800000000000000000000000000000000009E
:040000050800452D7D
:00000001FF
